{
  "_format": "hh-sol-artifact-1",
  "contractName": "MockAttacker",
  "sourceName": "contracts/MockAttacker.sol",
  "abi": [
    {
      "inputs": [],
      "name": "attack",
      "outputs": [],
      "stateMutability": "payable",
      "type": "function"
    },
    {
      "inputs": [],
      "name": "attackCount",
      "outputs": [
        {
          "internalType": "uint256",
          "name": "",
          "type": "uint256"
        }
      ],
      "stateMutability": "view",
      "type": "function"
    },
    {
      "inputs": [],
      "name": "paymentManager",
      "outputs": [
        {
          "internalType": "contract IPaymentManager",
          "name": "",
          "type": "address"
        }
      ],
      "stateMutability": "view",
      "type": "function"
    },
    {
      "inputs": [
        {
          "internalType": "address",
          "name": "_paymentManager",
          "type": "address"
        }
      ],
      "name": "setPaymentManager",
      "outputs": [],
      "stateMutability": "nonpayable",
      "type": "function"
    },
    {
      "stateMutability": "payable",
      "type": "receive"
    }
  ],
  "bytecode": "0x608060405234801561001057600080fd5b506102af806100206000396000f3fe6080604052600436106100435760003560e01c8063407c2821146100dc5780637e702dc8146101055780639e5faafc14610142578063aee1fe491461014a57600080fd5b366100d757600560015410156100d55760018054906000610063836101f0565b909155505060005460405163fb4da5b760e01b81526001600160a01b039091169063fb4da5b790670de0b6b3a7640000906100a2903090600401610217565b6000604051808303818588803b1580156100bb57600080fd5b505af11580156100cf573d6000803e3d6000fd5b50505050505b005b600080fd5b3480156100e857600080fd5b506100f260015481565b6040519081526020015b60405180910390f35b34801561011157600080fd5b506100d5610120366004610249565b600080546001600160a01b0319166001600160a01b0392909216919091179055565b6100d5610182565b34801561015657600080fd5b5060005461016a906001600160a01b031681565b6040516001600160a01b0390911681526020016100fc565b60005460405163fb4da5b760e01b81526001600160a01b039091169063fb4da5b790670de0b6b3a7640000906101bc903090600401610217565b6000604051808303818588803b1580156101d557600080fd5b505af11580156101e9573d6000803e3d6000fd5b5050505050565b60006001820161021057634e487b7160e01b600052601160045260246000fd5b5060010190565b6001600160a01b039190911681526040602082018190526006908201526561747461636b60d01b606082015260800190565b60006020828403121561025b57600080fd5b81356001600160a01b038116811461027257600080fd5b939250505056fea2646970667358221220047c8828ee0b97eed43d04e8019d35ce2105193d04d04a7518752493561ce75964736f6c63430008140033",
  "linkReferences": {},
  "deployedLinkReferences": {}
}