{
  "_format": "hh-sol-artifact-1",
  "contractName": "PaymentManager",
  "sourceName": "contracts/PaymentManager.sol",
  "abi": [
    {
      "inputs": [
        {
          "internalType": "address",
          "name": "_paymentAddress",
          "type": "address"
        },
        {
          "internalType": "address[]",
          "name": "_acceptedCryptocurrencies",
          "type": "address[]"
        },
        {
          "internalType": "address",
          "name": "_owner",
          "type": "address"
        }
      ],
      "stateMutability": "nonpayable",
      "type": "constructor"
    },
    {
      "inputs": [],
      "name": "EnforcedPause",
      "type": "error"
    },
    {
      "inputs": [],
      "name": "ExpectedPause",
      "type": "error"
    },
    {
      "inputs": [
        {
          "internalType": "address",
          "name": "owner",
          "type": "address"
        }
      ],
      "name": "OwnableInvalidOwner",
      "type": "error"
    },
    {
      "inputs": [
        {
          "internalType": "address",
          "name": "account",
          "type": "address"
        }
      ],
      "name": "OwnableUnauthorizedAccount",
      "type": "error"
    },
    {
      "inputs": [],
      "name": "ReentrancyGuardReentrantCall",
      "type": "error"
    },
    {
      "anonymous": false,
      "inputs": [
        {
          "indexed": true,
          "internalType": "address",
          "name": "cryptocurrency",
          "type": "address"
        },
        {
          "indexed": false,
          "internalType": "bool",
          "name": "status",
          "type": "bool"
        }
      ],
      "name": "CryptocurrencyStatusChanged",
      "type": "event"
    },
    {
      "anonymous": false,
      "inputs": [
        {
          "indexed": true,
          "internalType": "address",
          "name": "previousOwner",
          "type": "address"
        },
        {
          "indexed": true,
          "internalType": "address",
          "name": "newOwner",
          "type": "address"
        }
      ],
      "name": "OwnershipTransferred",
      "type": "event"
    },
    {
      "anonymous": false,
      "inputs": [
        {
          "indexed": false,
          "internalType": "address",
          "name": "account",
          "type": "address"
        }
      ],
      "name": "Paused",
      "type": "event"
    },
    {
      "anonymous": false,
      "inputs": [
        {
          "indexed": true,
          "internalType": "address",
          "name": "donor",
          "type": "address"
        },
        {
          "indexed": true,
          "internalType": "address",
          "name": "cryptocurrency",
          "type": "address"
        },
        {
          "indexed": false,
          "internalType": "uint256",
          "name": "amount",
          "type": "uint256"
        },
        {
          "indexed": false,
          "internalType": "string",
          "name": "uniqueIdentifier",
          "type": "string"
        }
      ],
      "name": "PaymentReceived",
      "type": "event"
    },
    {
      "anonymous": false,
      "inputs": [
        {
          "indexed": false,
          "internalType": "address",
          "name": "account",
          "type": "address"
        }
      ],
      "name": "Unpaused",
      "type": "event"
    },
    {
      "inputs": [
        {
          "internalType": "address",
          "name": "",
          "type": "address"
        }
      ],
      "name": "acceptedCryptocurrencies",
      "outputs": [
        {
          "internalType": "bool",
          "name": "",
          "type": "bool"
        }
      ],
      "stateMutability": "view",
      "type": "function"
    },
    {
      "inputs": [
        {
          "internalType": "address",
          "name": "_newAddress",
          "type": "address"
        }
      ],
      "name": "changePaymentAddress",
      "outputs": [],
      "stateMutability": "nonpayable",
      "type": "function"
    },
    {
      "inputs": [],
      "name": "owner",
      "outputs": [
        {
          "internalType": "address",
          "name": "",
          "type": "address"
        }
      ],
      "stateMutability": "view",
      "type": "function"
    },
    {
      "inputs": [],
      "name": "pause",
      "outputs": [],
      "stateMutability": "nonpayable",
      "type": "function"
    },
    {
      "inputs": [],
      "name": "paused",
      "outputs": [
        {
          "internalType": "bool",
          "name": "",
          "type": "bool"
        }
      ],
      "stateMutability": "view",
      "type": "function"
    },
    {
      "inputs": [
        {
          "internalType": "address",
          "name": "_cryptocurrency",
          "type": "address"
        },
        {
          "internalType": "string",
          "name": "uniqueIdentifier",
          "type": "string"
        }
      ],
      "name": "pay",
      "outputs": [],
      "stateMutability": "payable",
      "type": "function"
    },
    {
      "inputs": [],
      "name": "paymentAddress",
      "outputs": [
        {
          "internalType": "address",
          "name": "",
          "type": "address"
        }
      ],
      "stateMutability": "view",
      "type": "function"
    },
    {
      "inputs": [],
      "name": "renounceOwnership",
      "outputs": [],
      "stateMutability": "nonpayable",
      "type": "function"
    },
    {
      "inputs": [
        {
          "internalType": "address",
          "name": "_cryptocurrency",
          "type": "address"
        },
        {
          "internalType": "bool",
          "name": "_status",
          "type": "bool"
        }
      ],
      "name": "toggleAcceptedCryptocurrency",
      "outputs": [],
      "stateMutability": "nonpayable",
      "type": "function"
    },
    {
      "inputs": [
        {
          "internalType": "address",
          "name": "newOwner",
          "type": "address"
        }
      ],
      "name": "transferOwnership",
      "outputs": [],
      "stateMutability": "nonpayable",
      "type": "function"
    },
    {
      "inputs": [],
      "name": "unpause",
      "outputs": [],
      "stateMutability": "nonpayable",
      "type": "function"
    },
    {
      "inputs": [],
      "name": "withdraw",
      "outputs": [],
      "stateMutability": "nonpayable",
      "type": "function"
    },
    {
      "stateMutability": "payable",
      "type": "receive"
    }
  ],
  "bytecode": "0x60806040523480156200001157600080fd5b5060405162000d9d38038062000d9d833981016040819052620000349162000273565b6001600055806001600160a01b0381166200006a57604051631e4fbdf760e01b8152600060048201526024015b60405180910390fd5b6200007581620001ee565b506001805460ff60a01b191690556001600160a01b038316620000ea5760405162461bcd60e51b815260206004820152602660248201527f5061796d656e7420616464726573732063616e6e6f74206265207a65726f206160448201526564647265737360d01b606482015260840162000061565b600280546001600160a01b0319166001600160a01b03851617905560005b8251811015620001e4576001600360008584815181106200012d576200012d6200036e565b60200260200101516001600160a01b03166001600160a01b0316815260200190815260200160002060006101000a81548160ff0219169083151502179055508281815181106200018157620001816200036e565b60200260200101516001600160a01b03167f10364506cb93c702aa0771a182fa01f07e898777d393c633948864df4282abd36001604051620001c7911515815260200190565b60405180910390a280620001db8162000384565b91505062000108565b50505050620003ac565b600180546001600160a01b038381166001600160a01b0319831681179093556040519116919082907f8be0079c531659141344cd1fd0a4f28419497f9722a3daafe3b4186f6b6457e090600090a35050565b80516001600160a01b03811681146200025857600080fd5b919050565b634e487b7160e01b600052604160045260246000fd5b6000806000606084860312156200028957600080fd5b620002948462000240565b602085810151919450906001600160401b0380821115620002b457600080fd5b818701915087601f830112620002c957600080fd5b815181811115620002de57620002de6200025d565b8060051b604051601f19603f830116810181811085821117156200030657620003066200025d565b60405291825284820192508381018501918a8311156200032557600080fd5b938501935b828510156200034e576200033e8562000240565b845293850193928501926200032a565b809750505050505050620003656040850162000240565b90509250925092565b634e487b7160e01b600052603260045260246000fd5b600060018201620003a557634e487b7160e01b600052601160045260246000fd5b5060010190565b6109e180620003bc6000396000f3fe6080604052600436106100ab5760003560e01c8063715018a611610064578063715018a61461019f57806380d9edb5146101b45780638456cb59146101d45780638da5cb5b146101e9578063f2fde38b14610207578063fb4da5b71461022757600080fd5b80631d24fd1e146100b75780633ccfd60b146100fc5780633f4ba83a146101135780635c975abb14610128578063633423be146101475780637124d6131461017f57600080fd5b366100b257005b600080fd5b3480156100c357600080fd5b506100e76100d236600461081f565b60036020526000908152604090205460ff1681565b60405190151581526020015b60405180910390f35b34801561010857600080fd5b5061011161023a565b005b34801561011f57600080fd5b50610111610348565b34801561013457600080fd5b50600154600160a01b900460ff166100e7565b34801561015357600080fd5b50600254610167906001600160a01b031681565b6040516001600160a01b0390911681526020016100f3565b34801561018b57600080fd5b5061011161019a36600461081f565b610358565b3480156101ab57600080fd5b506101116103e3565b3480156101c057600080fd5b506101116101cf366004610841565b6103f5565b3480156101e057600080fd5b5061011161045c565b3480156101f557600080fd5b506001546001600160a01b0316610167565b34801561021357600080fd5b5061011161022236600461081f565b61046c565b610111610235366004610893565b6104aa565b61024261066d565b61024a61069a565b47806102945760405162461bcd60e51b81526020600482015260146024820152734e6f2066756e647320746f20776974686472617760601b60448201526064015b60405180910390fd5b60006102a86001546001600160a01b031690565b6001600160a01b03168260405160006040518083038185875af1925050503d80600081146102f2576040519150601f19603f3d011682016040523d82523d6000602084013e6102f7565b606091505b505090508061033a5760405162461bcd60e51b815260206004820152600f60248201526e15da5d1a191c985dc819985a5b1959608a1b604482015260640161028b565b50506103466001600055565b565b61035061066d565b6103466106c4565b61036061066d565b6001600160a01b0381166103c15760405162461bcd60e51b815260206004820152602260248201527f4e657720616464726573732063616e6e6f74206265207a65726f206164647265604482015261737360f01b606482015260840161028b565b600280546001600160a01b0319166001600160a01b0392909216919091179055565b6103eb61066d565b6103466000610719565b6103fd61066d565b6001600160a01b038216600081815260036020908152604091829020805460ff191685151590811790915591519182527f10364506cb93c702aa0771a182fa01f07e898777d393c633948864df4282abd3910160405180910390a25050565b61046461066d565b61034661076b565b61047461066d565b6001600160a01b03811661049e57604051631e4fbdf760e01b81526000600482015260240161028b565b6104a781610719565b50565b6104b26107ae565b6104ba61069a565b6001600160a01b03821660009081526003602052604090205460ff166105225760405162461bcd60e51b815260206004820152601b60248201527f43727970746f63757272656e6379206e6f742061636365707465640000000000604482015260640161028b565b6000341161057c5760405162461bcd60e51b815260206004820152602160248201527f5061796d656e74206d7573742062652067726561746572207468616e207a65726044820152606f60f81b606482015260840161028b565b816001600160a01b0316336001600160a01b03167f0da8e031922d6bdf36a83b26ef74cd487e4ec7945a6abf37b9b8cf1b194788fd34846040516105c1929190610955565b60405180910390a36002546040516000916001600160a01b03169034908381818185875af1925050503d8060008114610616576040519150601f19603f3d011682016040523d82523d6000602084013e61061b565b606091505b505090508061065e5760405162461bcd60e51b815260206004820152600f60248201526e151c985b9cd9995c8819985a5b1959608a1b604482015260640161028b565b506106696001600055565b5050565b6001546001600160a01b031633146103465760405163118cdaa760e01b815233600482015260240161028b565b6002600054036106bd57604051633ee5aeb560e01b815260040160405180910390fd5b6002600055565b6106cc6107d9565b6001805460ff60a01b191690557f5db9ee0a495bf2e6ff9c91a7834c1ba4fdd244a5e8aa4e537bd38aeae4b073aa335b6040516001600160a01b03909116815260200160405180910390a1565b600180546001600160a01b038381166001600160a01b0319831681179093556040519116919082907f8be0079c531659141344cd1fd0a4f28419497f9722a3daafe3b4186f6b6457e090600090a35050565b6107736107ae565b6001805460ff60a01b1916600160a01b1790557f62e78cea01bee320cd4e420270b5ea74000d11b0c9f74754ebdbfc544b05a2586106fc3390565b600154600160a01b900460ff16156103465760405163d93c066560e01b815260040160405180910390fd5b600154600160a01b900460ff1661034657604051638dfc202b60e01b815260040160405180910390fd5b80356001600160a01b038116811461081a57600080fd5b919050565b60006020828403121561083157600080fd5b61083a82610803565b9392505050565b6000806040838503121561085457600080fd5b61085d83610803565b91506020830135801515811461087257600080fd5b809150509250929050565b634e487b7160e01b600052604160045260246000fd5b600080604083850312156108a657600080fd5b6108af83610803565b9150602083013567ffffffffffffffff808211156108cc57600080fd5b818501915085601f8301126108e057600080fd5b8135818111156108f2576108f261087d565b604051601f8201601f19908116603f0116810190838211818310171561091a5761091a61087d565b8160405282815288602084870101111561093357600080fd5b8260208601602083013760006020848301015280955050505050509250929050565b82815260006020604081840152835180604085015260005b818110156109895785810183015185820160600152820161096d565b506000606082860101526060601f19601f83011685010192505050939250505056fea26469706673582212201add895dc080e1db48691365f38b8e0d16317ed0774d191c1714f20444ca67e464736f6c63430008140033",
  "linkReferences": {},
  "deployedLinkReferences": {}
}